{
  "_format": "hh-sol-artifact-1",
  "contractName": "BridgeableArbitrumNFT",
  "sourceName": "contracts/BridgeableArbitrumNFT.sol",
  "abi": [
    {
      "inputs": [],
      "name": "AccessControlBadConfirmation",
      "type": "error"
    },
    {
      "inputs": [
        {
          "internalType": "address",
          "name": "account",
          "type": "address"
        },
        {
          "internalType": "bytes32",
          "name": "neededRole",
          "type": "bytes32"
        }
      ],
      "name": "AccessControlUnauthorizedAccount",
      "type": "error"
    },
    {
      "inputs": [
        {
          "internalType": "address",
          "name": "sender",
          "type": "address"
        },
        {
          "internalType": "uint256",
          "name": "tokenId",
          "type": "uint256"
        },
        {
          "internalType": "address",
          "name": "owner",
          "type": "address"
        }
      ],
      "name": "ERC721IncorrectOwner",
      "type": "error"
    },
    {
      "inputs": [
        {
          "internalType": "address",
          "name": "operator",
          "type": "address"
        },
        {
          "internalType": "uint256",
          "name": "tokenId",
          "type": "uint256"
        }
      ],
      "name": "ERC721InsufficientApproval",
      "type": "error"
    },
    {
      "inputs": [
        {
          "internalType": "address",
          "name": "approver",
          "type": "address"
        }
      ],
      "name": "ERC721InvalidApprover",
      "type": "error"
    },
    {
      "inputs": [
        {
          "internalType": "address",
          "name": "operator",
          "type": "address"
        }
      ],
      "name": "ERC721InvalidOperator",
      "type": "error"
    },
    {
      "inputs": [
        {
          "internalType": "address",
          "name": "owner",
          "type": "address"
        }
      ],
      "name": "ERC721InvalidOwner",
      "type": "error"
    },
    {
      "inputs": [
        {
          "internalType": "address",
          "name": "receiver",
          "type": "address"
        }
      ],
      "name": "ERC721InvalidReceiver",
      "type": "error"
    },
    {
      "inputs": [
        {
          "internalType": "address",
          "name": "sender",
          "type": "address"
        }
      ],
      "name": "ERC721InvalidSender",
      "type": "error"
    },
    {
      "inputs": [
        {
          "internalType": "uint256",
          "name": "tokenId",
          "type": "uint256"
        }
      ],
      "name": "ERC721NonexistentToken",
      "type": "error"
    },
    {
      "inputs": [],
      "name": "EnforcedPause",
      "type": "error"
    },
    {
      "inputs": [],
      "name": "ExpectedPause",
      "type": "error"
    },
    {
      "inputs": [],
      "name": "InvalidInitialization",
      "type": "error"
    },
    {
      "inputs": [],
      "name": "InvalidValues",
      "type": "error"
    },
    {
      "inputs": [
        {
          "internalType": "uint256",
          "name": "tokenId",
          "type": "uint256"
        }
      ],
      "name": "NFTAlreadyDeposited",
      "type": "error"
    },
    {
      "inputs": [
        {
          "internalType": "uint256",
          "name": "tokenId",
          "type": "uint256"
        }
      ],
      "name": "NFTNotDeposited",
      "type": "error"
    },
    {
      "inputs": [],
      "name": "NotInitializing",
      "type": "error"
    },
    {
      "inputs": [],
      "name": "ReentrancyGuardReentrantCall",
      "type": "error"
    },
    {
      "anonymous": false,
      "inputs": [
        {
          "indexed": true,
          "internalType": "address",
          "name": "owner",
          "type": "address"
        },
        {
          "indexed": true,
          "internalType": "address",
          "name": "approved",
          "type": "address"
        },
        {
          "indexed": true,
          "internalType": "uint256",
          "name": "tokenId",
          "type": "uint256"
        }
      ],
      "name": "Approval",
      "type": "event"
    },
    {
      "anonymous": false,
      "inputs": [
        {
          "indexed": true,
          "internalType": "address",
          "name": "owner",
          "type": "address"
        },
        {
          "indexed": true,
          "internalType": "address",
          "name": "operator",
          "type": "address"
        },
        {
          "indexed": false,
          "internalType": "bool",
          "name": "approved",
          "type": "bool"
        }
      ],
      "name": "ApprovalForAll",
      "type": "event"
    },
    {
      "anonymous": false,
      "inputs": [
        {
          "indexed": true,
          "internalType": "address",
          "name": "from",
          "type": "address"
        },
        {
          "indexed": true,
          "internalType": "uint256",
          "name": "tokenId",
          "type": "uint256"
        }
      ],
      "name": "Deposit",
      "type": "event"
    },
    {
      "anonymous": false,
      "inputs": [
        {
          "indexed": false,
          "internalType": "uint64",
          "name": "version",
          "type": "uint64"
        }
      ],
      "name": "Initialized",
      "type": "event"
    },
    {
      "anonymous": false,
      "inputs": [
        {
          "indexed": false,
          "internalType": "address",
          "name": "account",
          "type": "address"
        }
      ],
      "name": "Paused",
      "type": "event"
    },
    {
      "anonymous": false,
      "inputs": [
        {
          "indexed": true,
          "internalType": "bytes32",
          "name": "role",
          "type": "bytes32"
        },
        {
          "indexed": true,
          "internalType": "bytes32",
          "name": "previousAdminRole",
          "type": "bytes32"
        },
        {
          "indexed": true,
          "internalType": "bytes32",
          "name": "newAdminRole",
          "type": "bytes32"
        }
      ],
      "name": "RoleAdminChanged",
      "type": "event"
    },
    {
      "anonymous": false,
      "inputs": [
        {
          "indexed": true,
          "internalType": "bytes32",
          "name": "role",
          "type": "bytes32"
        },
        {
          "indexed": true,
          "internalType": "address",
          "name": "account",
          "type": "address"
        },
        {
          "indexed": true,
          "internalType": "address",
          "name": "sender",
          "type": "address"
        }
      ],
      "name": "RoleGranted",
      "type": "event"
    },
    {
      "anonymous": false,
      "inputs": [
        {
          "indexed": true,
          "internalType": "bytes32",
          "name": "role",
          "type": "bytes32"
        },
        {
          "indexed": true,
          "internalType": "address",
          "name": "account",
          "type": "address"
        },
        {
          "indexed": true,
          "internalType": "address",
          "name": "sender",
          "type": "address"
        }
      ],
      "name": "RoleRevoked",
      "type": "event"
    },
    {
      "anonymous": false,
      "inputs": [
        {
          "indexed": true,
          "internalType": "address",
          "name": "from",
          "type": "address"
        },
        {
          "indexed": true,
          "internalType": "address",
          "name": "to",
          "type": "address"
        },
        {
          "indexed": true,
          "internalType": "uint256",
          "name": "tokenId",
          "type": "uint256"
        }
      ],
      "name": "Transfer",
      "type": "event"
    },
    {
      "anonymous": false,
      "inputs": [
        {
          "indexed": false,
          "internalType": "address",
          "name": "account",
          "type": "address"
        }
      ],
      "name": "Unpaused",
      "type": "event"
    },
    {
      "anonymous": false,
      "inputs": [
        {
          "indexed": true,
          "internalType": "address",
          "name": "to",
          "type": "address"
        },
        {
          "indexed": true,
          "internalType": "uint256",
          "name": "tokenId",
          "type": "uint256"
        }
      ],
      "name": "Withdraw",
      "type": "event"
    },
    {
      "inputs": [],
      "name": "ADMIN_ROLE",
      "outputs": [
        {
          "internalType": "bytes32",
          "name": "",
          "type": "bytes32"
        }
      ],
      "stateMutability": "view",
      "type": "function"
    },
    {
      "inputs": [],
      "name": "DEFAULT_ADMIN_ROLE",
      "outputs": [
        {
          "internalType": "bytes32",
          "name": "",
          "type": "bytes32"
        }
      ],
      "stateMutability": "view",
      "type": "function"
    },
    {
      "inputs": [],
      "name": "MINTER_ROLE",
      "outputs": [
        {
          "internalType": "bytes32",
          "name": "",
          "type": "bytes32"
        }
      ],
      "stateMutability": "view",
      "type": "function"
    },
    {
      "inputs": [],
      "name": "OWNER_ROLE",
      "outputs": [
        {
          "internalType": "bytes32",
          "name": "",
          "type": "bytes32"
        }
      ],
      "stateMutability": "view",
      "type": "function"
    },
    {
      "inputs": [],
      "name": "PAUSER_ROLE",
      "outputs": [
        {
          "internalType": "bytes32",
          "name": "",
          "type": "bytes32"
        }
      ],
      "stateMutability": "view",
      "type": "function"
    },
    {
      "inputs": [],
      "name": "UTILITY_ROLE",
      "outputs": [
        {
          "internalType": "bytes32",
          "name": "",
          "type": "bytes32"
        }
      ],
      "stateMutability": "view",
      "type": "function"
    },
    {
      "inputs": [],
      "name": "WITHDRAWER_ROLE",
      "outputs": [
        {
          "internalType": "bytes32",
          "name": "",
          "type": "bytes32"
        }
      ],
      "stateMutability": "view",
      "type": "function"
    },
    {
      "inputs": [],
      "name": "allowOpenMint",
      "outputs": [
        {
          "internalType": "bool",
          "name": "",
          "type": "bool"
        }
      ],
      "stateMutability": "view",
      "type": "function"
    },
    {
      "inputs": [
        {
          "internalType": "address",
          "name": "to",
          "type": "address"
        },
        {
          "internalType": "uint256",
          "name": "tokenId",
          "type": "uint256"
        }
      ],
      "name": "approve",
      "outputs": [],
      "stateMutability": "nonpayable",
      "type": "function"
    },
    {
      "inputs": [
        {
          "internalType": "address",
          "name": "owner",
          "type": "address"
        }
      ],
      "name": "balanceOf",
      "outputs": [
        {
          "internalType": "uint256",
          "name": "",
          "type": "uint256"
        }
      ],
      "stateMutability": "view",
      "type": "function"
    },
    {
      "inputs": [
        {
          "internalType": "uint256",
          "name": "tokenId",
          "type": "uint256"
        }
      ],
      "name": "burn",
      "outputs": [],
      "stateMutability": "nonpayable",
      "type": "function"
    },
    {
      "inputs": [
        {
          "internalType": "uint256",
          "name": "tokenId",
          "type": "uint256"
        }
      ],
      "name": "deposit",
      "outputs": [],
      "stateMutability": "nonpayable",
      "type": "function"
    },
    {
      "inputs": [
        {
          "internalType": "uint256",
          "name": "tokenId",
          "type": "uint256"
        }
      ],
      "name": "getApproved",
      "outputs": [
        {
          "internalType": "address",
          "name": "",
          "type": "address"
        }
      ],
      "stateMutability": "view",
      "type": "function"
    },
    {
      "inputs": [
        {
          "internalType": "bytes32",
          "name": "role",
          "type": "bytes32"
        }
      ],
      "name": "getRoleAdmin",
      "outputs": [
        {
          "internalType": "bytes32",
          "name": "",
          "type": "bytes32"
        }
      ],
      "stateMutability": "view",
      "type": "function"
    },
    {
      "inputs": [
        {
          "internalType": "bytes32",
          "name": "role",
          "type": "bytes32"
        },
        {
          "internalType": "address",
          "name": "account",
          "type": "address"
        }
      ],
      "name": "grantRole",
      "outputs": [],
      "stateMutability": "nonpayable",
      "type": "function"
    },
    {
      "inputs": [
        {
          "internalType": "bytes32",
          "name": "role",
          "type": "bytes32"
        },
        {
          "internalType": "address",
          "name": "account",
          "type": "address"
        }
      ],
      "name": "hasRole",
      "outputs": [
        {
          "internalType": "bool",
          "name": "",
          "type": "bool"
        }
      ],
      "stateMutability": "view",
      "type": "function"
    },
    {
      "inputs": [
        {
          "internalType": "address",
          "name": "initialOwner",
          "type": "address"
        }
      ],
      "name": "initialize",
      "outputs": [],
      "stateMutability": "nonpayable",
      "type": "function"
    },
    {
      "inputs": [
        {
          "internalType": "address",
          "name": "owner",
          "type": "address"
        },
        {
          "internalType": "address",
          "name": "operator",
          "type": "address"
        }
      ],
      "name": "isApprovedForAll",
      "outputs": [
        {
          "internalType": "bool",
          "name": "",
          "type": "bool"
        }
      ],
      "stateMutability": "view",
      "type": "function"
    },
    {
      "inputs": [
        {
          "internalType": "address",
          "name": "to",
          "type": "address"
        }
      ],
      "name": "mint",
      "outputs": [],
      "stateMutability": "nonpayable",
      "type": "function"
    },
    {
      "inputs": [],
      "name": "name",
      "outputs": [
        {
          "internalType": "string",
          "name": "",
          "type": "string"
        }
      ],
      "stateMutability": "view",
      "type": "function"
    },
    {
      "inputs": [
        {
          "internalType": "address",
          "name": "to",
          "type": "address"
        }
      ],
      "name": "openMint",
      "outputs": [],
      "stateMutability": "nonpayable",
      "type": "function"
    },
    {
      "inputs": [
        {
          "internalType": "uint256",
          "name": "tokenId",
          "type": "uint256"
        }
      ],
      "name": "ownerOf",
      "outputs": [
        {
          "internalType": "address",
          "name": "",
          "type": "address"
        }
      ],
      "stateMutability": "view",
      "type": "function"
    },
    {
      "inputs": [],
      "name": "pause",
      "outputs": [],
      "stateMutability": "nonpayable",
      "type": "function"
    },
    {
      "inputs": [],
      "name": "paused",
      "outputs": [
        {
          "internalType": "bool",
          "name": "",
          "type": "bool"
        }
      ],
      "stateMutability": "view",
      "type": "function"
    },
    {
      "inputs": [
        {
          "internalType": "bytes32",
          "name": "role",
          "type": "bytes32"
        },
        {
          "internalType": "address",
          "name": "callerConfirmation",
          "type": "address"
        }
      ],
      "name": "renounceRole",
      "outputs": [],
      "stateMutability": "nonpayable",
      "type": "function"
    },
    {
      "inputs": [
        {
          "internalType": "bytes32",
          "name": "role",
          "type": "bytes32"
        },
        {
          "internalType": "address",
          "name": "account",
          "type": "address"
        }
      ],
      "name": "revokeRole",
      "outputs": [],
      "stateMutability": "nonpayable",
      "type": "function"
    },
    {
      "inputs": [
        {
          "internalType": "address",
          "name": "from",
          "type": "address"
        },
        {
          "internalType": "address",
          "name": "to",
          "type": "address"
        },
        {
          "internalType": "uint256",
          "name": "tokenId",
          "type": "uint256"
        }
      ],
      "name": "safeTransferFrom",
      "outputs": [],
      "stateMutability": "nonpayable",
      "type": "function"
    },
    {
      "inputs": [
        {
          "internalType": "address",
          "name": "from",
          "type": "address"
        },
        {
          "internalType": "address",
          "name": "to",
          "type": "address"
        },
        {
          "internalType": "uint256",
          "name": "tokenId",
          "type": "uint256"
        },
        {
          "internalType": "bytes",
          "name": "data",
          "type": "bytes"
        }
      ],
      "name": "safeTransferFrom",
      "outputs": [],
      "stateMutability": "nonpayable",
      "type": "function"
    },
    {
      "inputs": [
        {
          "internalType": "bool",
          "name": "_allowOpenMint",
          "type": "bool"
        }
      ],
      "name": "setAllowOpenMint",
      "outputs": [],
      "stateMutability": "nonpayable",
      "type": "function"
    },
    {
      "inputs": [
        {
          "internalType": "address",
          "name": "operator",
          "type": "address"
        },
        {
          "internalType": "bool",
          "name": "approved",
          "type": "bool"
        }
      ],
      "name": "setApprovalForAll",
      "outputs": [],
      "stateMutability": "nonpayable",
      "type": "function"
    },
    {
      "inputs": [
        {
          "internalType": "bytes4",
          "name": "interfaceId",
          "type": "bytes4"
        }
      ],
      "name": "supportsInterface",
      "outputs": [
        {
          "internalType": "bool",
          "name": "",
          "type": "bool"
        }
      ],
      "stateMutability": "view",
      "type": "function"
    },
    {
      "inputs": [],
      "name": "symbol",
      "outputs": [
        {
          "internalType": "string",
          "name": "",
          "type": "string"
        }
      ],
      "stateMutability": "view",
      "type": "function"
    },
    {
      "inputs": [],
      "name": "tokenIdCounter",
      "outputs": [
        {
          "internalType": "uint256",
          "name": "",
          "type": "uint256"
        }
      ],
      "stateMutability": "view",
      "type": "function"
    },
    {
      "inputs": [
        {
          "internalType": "uint256",
          "name": "",
          "type": "uint256"
        }
      ],
      "name": "tokenIdToDeposited",
      "outputs": [
        {
          "internalType": "bool",
          "name": "",
          "type": "bool"
        }
      ],
      "stateMutability": "view",
      "type": "function"
    },
    {
      "inputs": [
        {
          "internalType": "uint256",
          "name": "tokenId",
          "type": "uint256"
        }
      ],
      "name": "tokenURI",
      "outputs": [
        {
          "internalType": "string",
          "name": "",
          "type": "string"
        }
      ],
      "stateMutability": "view",
      "type": "function"
    },
    {
      "inputs": [
        {
          "internalType": "address",
          "name": "from",
          "type": "address"
        },
        {
          "internalType": "address",
          "name": "to",
          "type": "address"
        },
        {
          "internalType": "uint256",
          "name": "tokenId",
          "type": "uint256"
        }
      ],
      "name": "transferFrom",
      "outputs": [],
      "stateMutability": "nonpayable",
      "type": "function"
    },
    {
      "inputs": [],
      "name": "unpause",
      "outputs": [],
      "stateMutability": "nonpayable",
      "type": "function"
    },
    {
      "inputs": [
        {
          "internalType": "address",
          "name": "to",
          "type": "address"
        },
        {
          "internalType": "uint256",
          "name": "tokenId",
          "type": "uint256"
        }
      ],
      "name": "withdraw",
      "outputs": [],
      "stateMutability": "nonpayable",
      "type": "function"
    }
  ],
  "bytecode": "0x608060405234801561001057600080fd5b5061203e806100206000396000f3fe608060405234801561001057600080fd5b50600436106102325760003560e01c80638456cb5911610130578063b88d4fde116100b8578063e58378bb1161007c578063e58378bb14610500578063e63ab1e914610527578063e985e9c51461053c578063f3fef3a31461054f578063fcb2ab981461056257600080fd5b8063b88d4fde1461049f578063c4d66de8146104b2578063c87b56dd146104c5578063d5391393146104d8578063d547741f146104ed57600080fd5b806395d89b41116100ff57806395d89b411461046057806398bdf6f514610468578063a217fddf14610471578063a22cb46514610479578063b6b55f251461048c57600080fd5b80638456cb59146103f757806385f438c1146103ff5780638f2967591461042657806391d148541461044d57600080fd5b80633f4ba83a116101be5780635cdc4ff2116101825780635cdc4ff2146103745780636352211e146103975780636a627842146103aa57806370a08231146103bd57806375b238fc146103d057600080fd5b80633f4ba83a1461031b57806342842e0e1461032357806342966c68146103365780635693ff3c146103495780635c975abb1461035c57600080fd5b806323b872dd1161020557806323b872dd146102b4578063248a9ca3146102c75780632f2ff15d146102e8578063310c8b3c146102fb57806336568abe1461030857600080fd5b806301ffc9a71461023757806306fdde031461025f578063081812fc14610274578063095ea7b31461029f575b600080fd5b61024a610245366004611a85565b610575565b60405190151581526020015b60405180910390f35b610267610586565b6040516102569190611af2565b610287610282366004611b05565b61062a565b6040516001600160a01b039091168152602001610256565b6102b26102ad366004611b3a565b61063f565b005b6102b26102c2366004611b64565b61064e565b6102da6102d5366004611b05565b6106de565b604051908152602001610256565b6102b26102f6366004611ba0565b610700565b60345461024a9060ff1681565b6102b2610316366004611ba0565b61071c565b6102b2610754565b6102b2610331366004611b64565b610777565b6102b2610344366004611b05565b610792565b6102b2610357366004611bcc565b6107b3565b600080516020611fc98339815191525460ff1661024a565b61024a610382366004611b05565b60326020526000908152604090205460ff1681565b6102876103a5366004611b05565b61081f565b6102b26103b8366004611bcc565b61082a565b6102da6103cb366004611bcc565b610864565b6102da7fa49807205ce4d355092ef5a8a18f56e8913cf4a201fbe287825b095693c2177581565b6102b26108c0565b6102da7f10dac8c06a04bec0b551627dad28bc00d6516b0caacd1c7b345fcdb5211334e481565b6102da7f35af5b5a3fb4c88a8cb5e26e8a68a53cc8f6cafcc4000a1db1ae5753e25a168e81565b61024a61045b366004611ba0565b6108e0565b610267610918565b6102da60335481565b6102da600081565b6102b2610487366004611bf7565b610957565b6102b261049a366004611b05565b610962565b6102b26104ad366004611c37565b610a5c565b6102b26104c0366004611bcc565b610a73565b6102676104d3366004611b05565b610bd6565b6102da600080516020611f8983398151915281565b6102b26104fb366004611ba0565b610c4b565b6102da7fb19546dff01e856fb3f010c267a7b1c60363cf8a4664e21cc89c26224620214e81565b6102da600080516020611f6983398151915281565b61024a61054a366004611d13565b610c67565b6102b261055d366004611b3a565b610cb4565b6102b2610570366004611d3d565b610d92565b600061058082610dd0565b92915050565b600080516020611f4983398151915280546060919081906105a690611d58565b80601f01602080910402602001604051908101604052809291908181526020018280546105d290611d58565b801561061f5780601f106105f45761010080835404028352916020019161061f565b820191906000526020600020905b81548152906001019060200180831161060257829003601f168201915b505050505091505090565b600061063582610e10565b5061058082610e48565b61064a828233610e82565b5050565b6001600160a01b03821661067d57604051633250574960e11b8152600060048201526024015b60405180910390fd5b600061068a838333610e8f565b9050836001600160a01b0316816001600160a01b0316146106d8576040516364283d7b60e01b81526001600160a01b0380861660048301526024820184905282166044820152606401610674565b50505050565b6000908152600080516020611fa9833981519152602052604090206001015490565b610709826106de565b61071281610f99565b6106d88383610fa3565b6001600160a01b03811633146107455760405163334bd91960e11b815260040160405180910390fd5b61074f8282611048565b505050565b600080516020611f6983398151915261076c81610f99565b6107746110c4565b50565b61074f83838360405180602001604052806000815250610a5c565b600080516020611f898339815191526107aa81610f99565b61064a82611124565b60345460ff166107fd5760405162461bcd60e51b815260206004820152601560248201527413dc195b881b5a5b9d081b9bdd08185b1b1bddd959605a1b6044820152606401610674565b6033805490600061080d83611d92565b909155505060335461064a828261115f565b600061058082610e10565b600080516020611f8983398151915261084281610f99565b6033805490600061085283611d92565b909155505060335461074f838261115f565b6000600080516020611f498339815191526001600160a01b03831661089f576040516322718ad960e21b815260006004820152602401610674565b6001600160a01b039092166000908152600390920160205250604090205490565b600080516020611f698339815191526108d881610f99565b6107746111c4565b6000918252600080516020611fa9833981519152602090815260408084206001600160a01b0393909316845291905290205460ff1690565b7f80bb2b638cc20bc4d0a60d66940f3ab4a00c1d7b313497ca82fb0b4ab00793018054606091600080516020611f49833981519152916105a690611d58565b61064a33838361120d565b61096a6112be565b6109726112f6565b3361097c8261081f565b6001600160a01b0316146109bf5760405162461bcd60e51b815260206004820152600a60248201526927b7363c9037bbb732b960b11b6044820152606401610674565b60008181526032602052604090205460ff1615156001036109f657604051637b62538d60e11b815260048101829052602401610674565b6000818152603260205260409020805460ff19166001179055610a1881611124565b604051819033907fe1fffcc4923d04b559f4d29a8bfc6cda04eb5b0d3c460751c2402c5c5cc9109c90600090a36107746001600080516020611fe983398151915255565b610a6784848461064e565b6106d88484848461133d565b7ff0c57e16840df040f15088dc2f81fe391c3923bec73e23a9662efc9c229c6a008054600160401b810460ff16159067ffffffffffffffff16600081158015610ab95750825b905060008267ffffffffffffffff166001148015610ad65750303b155b905081158015610ae4575080155b15610b025760405163f92ee8a960e01b815260040160405180910390fd5b845467ffffffffffffffff191660011785558315610b2c57845460ff60401b1916600160401b1785555b610b7f60405180604001604052806015815260200174109c9a5919d958589b19505c989a5d1c9d5b539195605a1b8152506040518060400160405280600481526020016327232a2160e11b815250611466565b610b8886611478565b8315610bce57845460ff60401b19168555604051600181527fc7f505b2f371ae2175ee4913f4499e1f2633a7b5936321eed1cdaeb6115181d29060200160405180910390a15b505050505050565b6060610be182610e10565b506000610bf960408051602081019091526000815290565b90506000815111610c195760405180602001604052806000815250610c44565b80610c2384611581565b604051602001610c34929190611db9565b6040516020818303038152906040525b9392505050565b610c54826106de565b610c5d81610f99565b6106d88383611048565b6001600160a01b0391821660009081527f80bb2b638cc20bc4d0a60d66940f3ab4a00c1d7b313497ca82fb0b4ab00793056020908152604080832093909416825291909152205460ff1690565b610cbc6112be565b610cc46112f6565b7f10dac8c06a04bec0b551627dad28bc00d6516b0caacd1c7b345fcdb5211334e4610cee81610f99565b60008281526032602052604081205460ff1615159003610d245760405163e4701eed60e01b815260048101839052602401610674565b6000828152603260205260409020805460ff19169055610d44838361115f565b60405182906001600160a01b038516907f884edad9ce6fa2440d8a54cc123490eb96d2768479d49ff9c7366125a942436490600090a35061064a6001600080516020611fe983398151915255565b7fb19546dff01e856fb3f010c267a7b1c60363cf8a4664e21cc89c26224620214e610dbc81610f99565b506034805460ff1916911515919091179055565b60006001600160e01b031982166380ac58cd60e01b1480610e0157506001600160e01b03198216635b5e139f60e01b145b80610580575061058082611614565b600080610e1c83611649565b90506001600160a01b03811661058057604051637e27328960e01b815260048101849052602401610674565b60009081527f80bb2b638cc20bc4d0a60d66940f3ab4a00c1d7b313497ca82fb0b4ab007930460205260409020546001600160a01b031690565b61074f8383836001611683565b6000600080516020611f4983398151915281610eaa85611649565b90506001600160a01b03841615610ec657610ec6818587611799565b6001600160a01b03811615610f0657610ee3600086600080611683565b6001600160a01b0381166000908152600383016020526040902080546000190190555b6001600160a01b03861615610f37576001600160a01b03861660009081526003830160205260409020805460010190555b600085815260028301602052604080822080546001600160a01b0319166001600160a01b038a811691821790925591518893918516917fddf252ad1be2c89b69c2b068fc378daa952ba7f163c4a11628f55a4df523b3ef91a495945050505050565b61077481336117fd565b6000600080516020611fa9833981519152610fbe84846108e0565b61103e576000848152602082815260408083206001600160a01b03871684529091529020805460ff19166001179055610ff43390565b6001600160a01b0316836001600160a01b0316857f2f8788117e7eff1d82e926ec794901d17c78024a50270940304540a733656f0d60405160405180910390a46001915050610580565b6000915050610580565b6000600080516020611fa983398151915261106384846108e0565b1561103e576000848152602082815260408083206001600160a01b0387168085529252808320805460ff1916905551339287917ff6391f5c32d9c69d2a47ea670b442974b53935d1edc7fd64eb21e047a839171b9190a46001915050610580565b6110cc611836565b600080516020611fc9833981519152805460ff191681557f5db9ee0a495bf2e6ff9c91a7834c1ba4fdd244a5e8aa4e537bd38aeae4b073aa335b6040516001600160a01b03909116815260200160405180910390a150565b60006111336000836000610e8f565b90506001600160a01b03811661064a57604051637e27328960e01b815260048101839052602401610674565b6001600160a01b03821661118957604051633250574960e11b815260006004820152602401610674565b600061119783836000610e8f565b90506001600160a01b0381161561074f576040516339e3563760e11b815260006004820152602401610674565b6111cc6112f6565b600080516020611fc9833981519152805460ff191660011781557f62e78cea01bee320cd4e420270b5ea74000d11b0c9f74754ebdbfc544b05a25833611106565b600080516020611f498339815191526001600160a01b03831661124e57604051630b61174360e31b81526001600160a01b0384166004820152602401610674565b6001600160a01b038481166000818152600584016020908152604080832094881680845294825291829020805460ff191687151590811790915591519182527f17307eab39ab6107e8899845ad3d59bd9653f200f220920489ca2b5937696c31910160405180910390a350505050565b600080516020611fe98339815191528054600119016112f057604051633ee5aeb560e01b815260040160405180910390fd5b60029055565b600080516020611fc98339815191525460ff16156113275760405163d93c066560e01b815260040160405180910390fd5b565b6001600080516020611fe983398151915255565b6001600160a01b0383163b156106d857604051630a85bd0160e11b81526001600160a01b0384169063150b7a029061137f903390889087908790600401611de8565b6020604051808303816000875af19250505080156113ba575060408051601f3d908101601f191682019092526113b791810190611e25565b60015b611423573d8080156113e8576040519150601f19603f3d011682016040523d82523d6000602084013e6113ed565b606091505b50805160000361141b57604051633250574960e11b81526001600160a01b0385166004820152602401610674565b805181602001fd5b6001600160e01b03198116630a85bd0160e11b1461145f57604051633250574960e11b81526001600160a01b0385166004820152602401610674565b5050505050565b61146e611866565b61064a82826118af565b611480611866565b6114886118e0565b6114906118f0565b6114986118f8565b6114a3600082610fa3565b506114bc600080516020611f6983398151915282610fa3565b506114e77fb19546dff01e856fb3f010c267a7b1c60363cf8a4664e21cc89c26224620214e82610fa3565b50611500600080516020611f8983398151915282610fa3565b5061152b7fa49807205ce4d355092ef5a8a18f56e8913cf4a201fbe287825b095693c2177582610fa3565b506115567f35af5b5a3fb4c88a8cb5e26e8a68a53cc8f6cafcc4000a1db1ae5753e25a168e82610fa3565b5061064a7f10dac8c06a04bec0b551627dad28bc00d6516b0caacd1c7b345fcdb5211334e482610fa3565b6060600061158e83611908565b600101905060008167ffffffffffffffff8111156115ae576115ae611c21565b6040519080825280601f01601f1916602001820160405280156115d8576020820181803683370190505b5090508181016020015b600019016f181899199a1a9b1b9c1cb0b131b232b360811b600a86061a8153600a85049450846115e257509392505050565b60006001600160e01b03198216637965db0b60e01b148061058057506301ffc9a760e01b6001600160e01b0319831614610580565b60009081527f80bb2b638cc20bc4d0a60d66940f3ab4a00c1d7b313497ca82fb0b4ab007930260205260409020546001600160a01b031690565b600080516020611f4983398151915281806116a657506001600160a01b03831615155b156117685760006116b685610e10565b90506001600160a01b038416158015906116e25750836001600160a01b0316816001600160a01b031614155b80156116f557506116f38185610c67565b155b1561171e5760405163a9fbf51f60e01b81526001600160a01b0385166004820152602401610674565b82156117665784866001600160a01b0316826001600160a01b03167f8c5be1e5ebec7d5bd14f71427d1e84f3dd0314c0f7b2291e5b200ac8c7c3b92560405160405180910390a45b505b600093845260040160205250506040902080546001600160a01b0319166001600160a01b0392909216919091179055565b6117a48383836119e0565b61074f576001600160a01b0383166117d257604051637e27328960e01b815260048101829052602401610674565b60405163177e802f60e01b81526001600160a01b038316600482015260248101829052604401610674565b61180782826108e0565b61064a5760405163e2517d3f60e01b81526001600160a01b038216600482015260248101839052604401610674565b600080516020611fc98339815191525460ff1661132757604051638dfc202b60e01b815260040160405180910390fd5b7ff0c57e16840df040f15088dc2f81fe391c3923bec73e23a9662efc9c229c6a0054600160401b900460ff1661132757604051631afcd79f60e31b815260040160405180910390fd5b6118b7611866565b600080516020611f49833981519152806118d18482611e88565b50600181016106d88382611e88565b6118e8611866565b611327611a46565b611327611866565b611900611866565b611327611a67565b60008072184f03e93ff9f4daa797ed6e38ed64bf6a1f0160401b83106119475772184f03e93ff9f4daa797ed6e38ed64bf6a1f0160401b830492506040015b6d04ee2d6d415b85acef81000000008310611973576d04ee2d6d415b85acef8100000000830492506020015b662386f26fc10000831061199157662386f26fc10000830492506010015b6305f5e10083106119a9576305f5e100830492506008015b61271083106119bd57612710830492506004015b606483106119cf576064830492506002015b600a83106105805760010192915050565b60006001600160a01b03831615801590611a3e5750826001600160a01b0316846001600160a01b03161480611a1a5750611a1a8484610c67565b80611a3e5750826001600160a01b0316611a3383610e48565b6001600160a01b0316145b949350505050565b611a4e611866565b600080516020611fc9833981519152805460ff19169055565b611329611866565b6001600160e01b03198116811461077457600080fd5b600060208284031215611a9757600080fd5b8135610c4481611a6f565b60005b83811015611abd578181015183820152602001611aa5565b50506000910152565b60008151808452611ade816020860160208601611aa2565b601f01601f19169290920160200192915050565b602081526000610c446020830184611ac6565b600060208284031215611b1757600080fd5b5035919050565b80356001600160a01b0381168114611b3557600080fd5b919050565b60008060408385031215611b4d57600080fd5b611b5683611b1e565b946020939093013593505050565b600080600060608486031215611b7957600080fd5b611b8284611b1e565b9250611b9060208501611b1e565b9150604084013590509250925092565b60008060408385031215611bb357600080fd5b82359150611bc360208401611b1e565b90509250929050565b600060208284031215611bde57600080fd5b610c4482611b1e565b80358015158114611b3557600080fd5b60008060408385031215611c0a57600080fd5b611c1383611b1e565b9150611bc360208401611be7565b634e487b7160e01b600052604160045260246000fd5b60008060008060808587031215611c4d57600080fd5b611c5685611b1e565b9350611c6460208601611b1e565b925060408501359150606085013567ffffffffffffffff80821115611c8857600080fd5b818701915087601f830112611c9c57600080fd5b813581811115611cae57611cae611c21565b604051601f8201601f19908116603f01168101908382118183101715611cd657611cd6611c21565b816040528281528a6020848701011115611cef57600080fd5b82602086016020830137600060208483010152809550505050505092959194509250565b60008060408385031215611d2657600080fd5b611d2f83611b1e565b9150611bc360208401611b1e565b600060208284031215611d4f57600080fd5b610c4482611be7565b600181811c90821680611d6c57607f821691505b602082108103611d8c57634e487b7160e01b600052602260045260246000fd5b50919050565b600060018201611db257634e487b7160e01b600052601160045260246000fd5b5060010190565b60008351611dcb818460208801611aa2565b835190830190611ddf818360208801611aa2565b01949350505050565b6001600160a01b0385811682528416602082015260408101839052608060608201819052600090611e1b90830184611ac6565b9695505050505050565b600060208284031215611e3757600080fd5b8151610c4481611a6f565b601f82111561074f57600081815260208120601f850160051c81016020861015611e695750805b601f850160051c820191505b81811015610bce57828155600101611e75565b815167ffffffffffffffff811115611ea257611ea2611c21565b611eb681611eb08454611d58565b84611e42565b602080601f831160018114611eeb5760008415611ed35750858301515b600019600386901b1c1916600185901b178555610bce565b600085815260208120601f198616915b82811015611f1a57888601518255948401946001909101908401611efb565b5085821015611f385787850151600019600388901b60f8161c191681555b5050505050600190811b0190555056fe80bb2b638cc20bc4d0a60d66940f3ab4a00c1d7b313497ca82fb0b4ab007930065d7a28e3265b37a6474929f336521b332c1681b933f6cb9f3376673440d862a9f2df0fed2c77648de5860a4cc508cd0818c85b8b8a1ab4ceeef8d981c8956a602dd7bc7dec4dceedda775e58dd541e08a116c6c53815c0bd028192f7b626800cd5ed15c6e187e77e9aee88184c21f4f2182ab5827cb3b7e07fbedcd63f033009b779b17422d0df92223018b32b4d1fa46e071723d6817e2486d003becc55f00a2646970667358221220492579f93a19db0350afe6405b467488d6565b64ad5ced69b7c52fa8c0fea30064736f6c63430008140033",
  "linkReferences": {},
  "deployedLinkReferences": {}
}