{"abi":[{"type":"function","name":"ADMIN_ROLE","inputs":[],"outputs":[{"name":"","type":"bytes32","internalType":"bytes32"}],"stateMutability":"view"},{"type":"function","name":"DEFAULT_ADMIN_ROLE","inputs":[],"outputs":[{"name":"","type":"bytes32","internalType":"bytes32"}],"stateMutability":"view"},{"type":"function","name":"MINTER_ROLE","inputs":[],"outputs":[{"name":"","type":"bytes32","internalType":"bytes32"}],"stateMutability":"view"},{"type":"function","name":"OWNER_ROLE","inputs":[],"outputs":[{"name":"","type":"bytes32","internalType":"bytes32"}],"stateMutability":"view"},{"type":"function","name":"PAUSER_ROLE","inputs":[],"outputs":[{"name":"","type":"bytes32","internalType":"bytes32"}],"stateMutability":"view"},{"type":"function","name":"UTILITY_ROLE","inputs":[],"outputs":[{"name":"","type":"bytes32","internalType":"bytes32"}],"stateMutability":"view"},{"type":"function","name":"WITHDRAWER_ROLE","inputs":[],"outputs":[{"name":"","type":"bytes32","internalType":"bytes32"}],"stateMutability":"view"},{"type":"function","name":"approve","inputs":[{"name":"to","type":"address","internalType":"address"},{"name":"tokenId","type":"uint256","internalType":"uint256"}],"outputs":[],"stateMutability":"nonpayable"},{"type":"function","name":"balanceOf","inputs":[{"name":"owner","type":"address","internalType":"address"}],"outputs":[{"name":"","type":"uint256","internalType":"uint256"}],"stateMutability":"view"},{"type":"function","name":"deposit","inputs":[{"name":"tokenId","type":"uint256","internalType":"uint256"}],"outputs":[],"stateMutability":"nonpayable"},{"type":"function","name":"getApproved","inputs":[{"name":"tokenId","type":"uint256","internalType":"uint256"}],"outputs":[{"name":"","type":"address","internalType":"address"}],"stateMutability":"view"},{"type":"function","name":"getRoleAdmin","inputs":[{"name":"role","type":"bytes32","internalType":"bytes32"}],"outputs":[{"name":"","type":"bytes32","internalType":"bytes32"}],"stateMutability":"view"},{"type":"function","name":"grantRole","inputs":[{"name":"role","type":"bytes32","internalType":"bytes32"},{"name":"account","type":"address","internalType":"address"}],"outputs":[],"stateMutability":"nonpayable"},{"type":"function","name":"hasRole","inputs":[{"name":"role","type":"bytes32","internalType":"bytes32"},{"name":"account","type":"address","internalType":"address"}],"outputs":[{"name":"","type":"bool","internalType":"bool"}],"stateMutability":"view"},{"type":"function","name":"initialize","inputs":[{"name":"initialOwner","type":"address","internalType":"address"}],"outputs":[],"stateMutability":"nonpayable"},{"type":"function","name":"isApprovedForAll","inputs":[{"name":"owner","type":"address","internalType":"address"},{"name":"operator","type":"address","internalType":"address"}],"outputs":[{"name":"","type":"bool","internalType":"bool"}],"stateMutability":"view"},{"type":"function","name":"name","inputs":[],"outputs":[{"name":"","type":"string","internalType":"string"}],"stateMutability":"view"},{"type":"function","name":"ownerOf","inputs":[{"name":"tokenId","type":"uint256","internalType":"uint256"}],"outputs":[{"name":"","type":"address","internalType":"address"}],"stateMutability":"view"},{"type":"function","name":"pause","inputs":[],"outputs":[],"stateMutability":"nonpayable"},{"type":"function","name":"paused","inputs":[],"outputs":[{"name":"","type":"bool","internalType":"bool"}],"stateMutability":"view"},{"type":"function","name":"renounceRole","inputs":[{"name":"role","type":"bytes32","internalType":"bytes32"},{"name":"callerConfirmation","type":"address","internalType":"address"}],"outputs":[],"stateMutability":"nonpayable"},{"type":"function","name":"revokeRole","inputs":[{"name":"role","type":"bytes32","internalType":"bytes32"},{"name":"account","type":"address","internalType":"address"}],"outputs":[],"stateMutability":"nonpayable"},{"type":"function","name":"safeTransferFrom","inputs":[{"name":"from","type":"address","internalType":"address"},{"name":"to","type":"address","internalType":"address"},{"name":"tokenId","type":"uint256","internalType":"uint256"}],"outputs":[],"stateMutability":"nonpayable"},{"type":"function","name":"safeTransferFrom","inputs":[{"name":"from","type":"address","internalType":"address"},{"name":"to","type":"address","internalType":"address"},{"name":"tokenId","type":"uint256","internalType":"uint256"},{"name":"data","type":"bytes","internalType":"bytes"}],"outputs":[],"stateMutability":"nonpayable"},{"type":"function","name":"setApprovalForAll","inputs":[{"name":"operator","type":"address","internalType":"address"},{"name":"approved","type":"bool","internalType":"bool"}],"outputs":[],"stateMutability":"nonpayable"},{"type":"function","name":"supportsInterface","inputs":[{"name":"interfaceId","type":"bytes4","internalType":"bytes4"}],"outputs":[{"name":"","type":"bool","internalType":"bool"}],"stateMutability":"view"},{"type":"function","name":"symbol","inputs":[],"outputs":[{"name":"","type":"string","internalType":"string"}],"stateMutability":"view"},{"type":"function","name":"tokenURI","inputs":[{"name":"tokenId","type":"uint256","internalType":"uint256"}],"outputs":[{"name":"","type":"string","internalType":"string"}],"stateMutability":"view"},{"type":"function","name":"transferFrom","inputs":[{"name":"from","type":"address","internalType":"address"},{"name":"to","type":"address","internalType":"address"},{"name":"tokenId","type":"uint256","internalType":"uint256"}],"outputs":[],"stateMutability":"nonpayable"},{"type":"function","name":"unpause","inputs":[],"outputs":[],"stateMutability":"nonpayable"},{"type":"function","name":"withdraw","inputs":[{"name":"to","type":"address","internalType":"address"},{"name":"tokenId","type":"uint256","internalType":"uint256"}],"outputs":[],"stateMutability":"nonpayable"},{"type":"event","name":"Approval","inputs":[{"name":"owner","type":"address","indexed":true,"internalType":"address"},{"name":"approved","type":"address","indexed":true,"internalType":"address"},{"name":"tokenId","type":"uint256","indexed":true,"internalType":"uint256"}],"anonymous":false},{"type":"event","name":"ApprovalForAll","inputs":[{"name":"owner","type":"address","indexed":true,"internalType":"address"},{"name":"operator","type":"address","indexed":true,"internalType":"address"},{"name":"approved","type":"bool","indexed":false,"internalType":"bool"}],"anonymous":false},{"type":"event","name":"Deposit","inputs":[{"name":"from","type":"address","indexed":true,"internalType":"address"},{"name":"tokenId","type":"uint256","indexed":true,"internalType":"uint256"}],"anonymous":false},{"type":"event","name":"Initialized","inputs":[{"name":"version","type":"uint64","indexed":false,"internalType":"uint64"}],"anonymous":false},{"type":"event","name":"Paused","inputs":[{"name":"account","type":"address","indexed":false,"internalType":"address"}],"anonymous":false},{"type":"event","name":"RoleAdminChanged","inputs":[{"name":"role","type":"bytes32","indexed":true,"internalType":"bytes32"},{"name":"previousAdminRole","type":"bytes32","indexed":true,"internalType":"bytes32"},{"name":"newAdminRole","type":"bytes32","indexed":true,"internalType":"bytes32"}],"anonymous":false},{"type":"event","name":"RoleGranted","inputs":[{"name":"role","type":"bytes32","indexed":true,"internalType":"bytes32"},{"name":"account","type":"address","indexed":true,"internalType":"address"},{"name":"sender","type":"address","indexed":true,"internalType":"address"}],"anonymous":false},{"type":"event","name":"RoleRevoked","inputs":[{"name":"role","type":"bytes32","indexed":true,"internalType":"bytes32"},{"name":"account","type":"address","indexed":true,"internalType":"address"},{"name":"sender","type":"address","indexed":true,"internalType":"address"}],"anonymous":false},{"type":"event","name":"Transfer","inputs":[{"name":"from","type":"address","indexed":true,"internalType":"address"},{"name":"to","type":"address","indexed":true,"internalType":"address"},{"name":"tokenId","type":"uint256","indexed":true,"internalType":"uint256"}],"anonymous":false},{"type":"event","name":"Unpaused","inputs":[{"name":"account","type":"address","indexed":false,"internalType":"address"}],"anonymous":false},{"type":"event","name":"Withdraw","inputs":[{"name":"to","type":"address","indexed":true,"internalType":"address"},{"name":"tokenId","type":"uint256","indexed":true,"internalType":"uint256"}],"anonymous":false},{"type":"error","name":"AccessControlBadConfirmation","inputs":[]},{"type":"error","name":"AccessControlUnauthorizedAccount","inputs":[{"name":"account","type":"address","internalType":"address"},{"name":"neededRole","type":"bytes32","internalType":"bytes32"}]},{"type":"error","name":"ERC721IncorrectOwner","inputs":[{"name":"sender","type":"address","internalType":"address"},{"name":"tokenId","type":"uint256","internalType":"uint256"},{"name":"owner","type":"address","internalType":"address"}]},{"type":"error","name":"ERC721InsufficientApproval","inputs":[{"name":"operator","type":"address","internalType":"address"},{"name":"tokenId","type":"uint256","internalType":"uint256"}]},{"type":"error","name":"ERC721InvalidApprover","inputs":[{"name":"approver","type":"address","internalType":"address"}]},{"type":"error","name":"ERC721InvalidOperator","inputs":[{"name":"operator","type":"address","internalType":"address"}]},{"type":"error","name":"ERC721InvalidOwner","inputs":[{"name":"owner","type":"address","internalType":"address"}]},{"type":"error","name":"ERC721InvalidReceiver","inputs":[{"name":"receiver","type":"address","internalType":"address"}]},{"type":"error","name":"ERC721InvalidSender","inputs":[{"name":"sender","type":"address","internalType":"address"}]},{"type":"error","name":"ERC721NonexistentToken","inputs":[{"name":"tokenId","type":"uint256","internalType":"uint256"}]},{"type":"error","name":"EnforcedPause","inputs":[]},{"type":"error","name":"ExpectedPause","inputs":[]},{"type":"error","name":"InvalidInitialization","inputs":[]},{"type":"error","name":"InvalidValues","inputs":[]},{"type":"error","name":"NFTAlreadyDeposited","inputs":[{"name":"tokenId","type":"uint256","internalType":"uint256"}]},{"type":"error","name":"NFTNotDeposited","inputs":[{"name":"tokenId","type":"uint256","internalType":"uint256"}]},{"type":"error","name":"NotInitializing","inputs":[]},{"type":"error","name":"ReentrancyGuardReentrantCall","inputs":[]}],"bytecode":{"object":"0x608060405234801561001057600080fd5b50611d91806100206000396000f3fe608060405234801561001057600080fd5b50600436106101e55760003560e01c806385f438c11161010f578063c4d66de8116100a2578063e58378bb11610071578063e58378bb14610453578063e63ab1e91461047a578063e985e9c51461048f578063f3fef3a3146104a257600080fd5b8063c4d66de8146103f3578063c87b56dd14610406578063d539139314610419578063d547741f1461044057600080fd5b8063a217fddf116100de578063a217fddf146103b2578063a22cb465146103ba578063b6b55f25146103cd578063b88d4fde146103e057600080fd5b806385f438c1146103495780638f2967591461037057806391d148541461039757806395d89b41146103aa57600080fd5b806336568abe116101875780636352211e116101565780636352211e146102f457806370a082311461030757806375b238fc1461031a5780638456cb591461034157600080fd5b806336568abe146102ae5780633f4ba83a146102c157806342842e0e146102c95780635c975abb146102dc57600080fd5b8063095ea7b3116101c3578063095ea7b31461025257806323b872dd14610267578063248a9ca31461027a5780632f2ff15d1461029b57600080fd5b806301ffc9a7146101ea57806306fdde0314610212578063081812fc14610227575b600080fd5b6101fd6101f8366004611836565b6104b5565b60405190151581526020015b60405180910390f35b61021a6104c6565b60405161020991906118a3565b61023a6102353660046118b6565b61056a565b6040516001600160a01b039091168152602001610209565b6102656102603660046118eb565b61057f565b005b610265610275366004611915565b61058e565b61028d6102883660046118b6565b61061e565b604051908152602001610209565b6102656102a9366004611951565b610640565b6102656102bc366004611951565b61065c565b610265610694565b6102656102d7366004611915565b6106b7565b600080516020611d1c8339815191525460ff166101fd565b61023a6103023660046118b6565b6106d2565b61028d61031536600461197d565b6106dd565b61028d7fa49807205ce4d355092ef5a8a18f56e8913cf4a201fbe287825b095693c2177581565b610265610739565b61028d7f10dac8c06a04bec0b551627dad28bc00d6516b0caacd1c7b345fcdb5211334e481565b61028d7f35af5b5a3fb4c88a8cb5e26e8a68a53cc8f6cafcc4000a1db1ae5753e25a168e81565b6101fd6103a5366004611951565b610759565b61021a610791565b61028d600081565b6102656103c8366004611998565b6107d0565b6102656103db3660046118b6565b6107db565b6102656103ee3660046119ea565b610885565b61026561040136600461197d565b61089c565b61021a6104143660046118b6565b6109ff565b61028d7f9f2df0fed2c77648de5860a4cc508cd0818c85b8b8a1ab4ceeef8d981c8956a681565b61026561044e366004611951565b610a74565b61028d7fb19546dff01e856fb3f010c267a7b1c60363cf8a4664e21cc89c26224620214e81565b61028d600080516020611cdc83398151915281565b6101fd61049d366004611ac6565b610a90565b6102656104b03660046118eb565b610add565b60006104c082610b6f565b92915050565b600080516020611cbc83398151915280546060919081906104e690611af0565b80601f016020809104026020016040519081016040528092919081815260200182805461051290611af0565b801561055f5780601f106105345761010080835404028352916020019161055f565b820191906000526020600020905b81548152906001019060200180831161054257829003601f168201915b505050505091505090565b600061057582610baf565b506104c082610be7565b61058a828233610c21565b5050565b6001600160a01b0382166105bd57604051633250574960e11b8152600060048201526024015b60405180910390fd5b60006105ca838333610c2e565b9050836001600160a01b0316816001600160a01b031614610618576040516364283d7b60e01b81526001600160a01b03808616600483015260248201849052821660448201526064016105b4565b50505050565b6000908152600080516020611cfc833981519152602052604090206001015490565b6106498261061e565b61065281610d38565b6106188383610d42565b6001600160a01b03811633146106855760405163334bd91960e11b815260040160405180910390fd5b61068f8282610de7565b505050565b600080516020611cdc8339815191526106ac81610d38565b6106b4610e63565b50565b61068f83838360405180602001604052806000815250610885565b60006104c082610baf565b6000600080516020611cbc8339815191526001600160a01b038316610718576040516322718ad960e21b8152600060048201526024016105b4565b6001600160a01b039092166000908152600390920160205250604090205490565b600080516020611cdc83398151915261075181610d38565b6106b4610ec3565b6000918252600080516020611cfc833981519152602090815260408084206001600160a01b0393909316845291905290205460ff1690565b7f80bb2b638cc20bc4d0a60d66940f3ab4a00c1d7b313497ca82fb0b4ab00793018054606091600080516020611cbc833981519152916104e690611af0565b61058a338383610f0c565b6107e3610fbd565b6107eb610ff5565b336107f5826106d2565b6001600160a01b0316146108385760405162461bcd60e51b815260206004820152600a60248201526927b7363c9037bbb732b960b11b60448201526064016105b4565b61084181611028565b604051819033907fe1fffcc4923d04b559f4d29a8bfc6cda04eb5b0d3c460751c2402c5c5cc9109c90600090a36106b46001600080516020611d3c83398151915255565b61089084848461058e565b61061884848484611077565b7ff0c57e16840df040f15088dc2f81fe391c3923bec73e23a9662efc9c229c6a008054600160401b810460ff16159067ffffffffffffffff166000811580156108e25750825b905060008267ffffffffffffffff1660011480156108ff5750303b155b90508115801561090d575080155b1561092b5760405163f92ee8a960e01b815260040160405180910390fd5b845467ffffffffffffffff19166001178555831561095557845460ff60401b1916600160401b1785555b6109a860405180604001604052806015815260200174109c9a5919d958589b1953dc1d1a5b5a5cdb539195605a1b8152506040518060400160405280600481526020016327232a2160e11b8152506111a0565b6109b1866111b2565b83156109f757845460ff60401b19168555604051600181527fc7f505b2f371ae2175ee4913f4499e1f2633a7b5936321eed1cdaeb6115181d29060200160405180910390a15b505050505050565b6060610a0a82610baf565b506000610a2260408051602081019091526000815290565b90506000815111610a425760405180602001604052806000815250610a6d565b80610a4c846112cd565b604051602001610a5d929190611b2a565b6040516020818303038152906040525b9392505050565b610a7d8261061e565b610a8681610d38565b6106188383610de7565b6001600160a01b0391821660009081527f80bb2b638cc20bc4d0a60d66940f3ab4a00c1d7b313497ca82fb0b4ab00793056020908152604080832093909416825291909152205460ff1690565b610ae5610fbd565b610aed610ff5565b7f10dac8c06a04bec0b551627dad28bc00d6516b0caacd1c7b345fcdb5211334e4610b1781610d38565b610b218383611360565b60405182906001600160a01b038516907f884edad9ce6fa2440d8a54cc123490eb96d2768479d49ff9c7366125a942436490600090a35061058a6001600080516020611d3c83398151915255565b60006001600160e01b031982166380ac58cd60e01b1480610ba057506001600160e01b03198216635b5e139f60e01b145b806104c057506104c0826113c5565b600080610bbb836113fa565b90506001600160a01b0381166104c057604051637e27328960e01b8152600481018490526024016105b4565b60009081527f80bb2b638cc20bc4d0a60d66940f3ab4a00c1d7b313497ca82fb0b4ab007930460205260409020546001600160a01b031690565b61068f8383836001611434565b6000600080516020611cbc83398151915281610c49856113fa565b90506001600160a01b03841615610c6557610c6581858761154a565b6001600160a01b03811615610ca557610c82600086600080611434565b6001600160a01b0381166000908152600383016020526040902080546000190190555b6001600160a01b03861615610cd6576001600160a01b03861660009081526003830160205260409020805460010190555b600085815260028301602052604080822080546001600160a01b0319166001600160a01b038a811691821790925591518893918516917fddf252ad1be2c89b69c2b068fc378daa952ba7f163c4a11628f55a4df523b3ef91a495945050505050565b6106b481336115ae565b6000600080516020611cfc833981519152610d5d8484610759565b610ddd576000848152602082815260408083206001600160a01b03871684529091529020805460ff19166001179055610d933390565b6001600160a01b0316836001600160a01b0316857f2f8788117e7eff1d82e926ec794901d17c78024a50270940304540a733656f0d60405160405180910390a460019150506104c0565b60009150506104c0565b6000600080516020611cfc833981519152610e028484610759565b15610ddd576000848152602082815260408083206001600160a01b0387168085529252808320805460ff1916905551339287917ff6391f5c32d9c69d2a47ea670b442974b53935d1edc7fd64eb21e047a839171b9190a460019150506104c0565b610e6b6115e7565b600080516020611d1c833981519152805460ff191681557f5db9ee0a495bf2e6ff9c91a7834c1ba4fdd244a5e8aa4e537bd38aeae4b073aa335b6040516001600160a01b03909116815260200160405180910390a150565b610ecb610ff5565b600080516020611d1c833981519152805460ff191660011781557f62e78cea01bee320cd4e420270b5ea74000d11b0c9f74754ebdbfc544b05a25833610ea5565b600080516020611cbc8339815191526001600160a01b038316610f4d57604051630b61174360e31b81526001600160a01b03841660048201526024016105b4565b6001600160a01b038481166000818152600584016020908152604080832094881680845294825291829020805460ff191687151590811790915591519182527f17307eab39ab6107e8899845ad3d59bd9653f200f220920489ca2b5937696c31910160405180910390a350505050565b600080516020611d3c833981519152805460011901610fef57604051633ee5aeb560e01b815260040160405180910390fd5b60029055565b600080516020611d1c8339815191525460ff16156110265760405163d93c066560e01b815260040160405180910390fd5b565b60006110376000836000610c2e565b90506001600160a01b03811661058a57604051637e27328960e01b8152600481018390526024016105b4565b6001600080516020611d3c83398151915255565b6001600160a01b0383163b1561061857604051630a85bd0160e11b81526001600160a01b0384169063150b7a02906110b9903390889087908790600401611b59565b6020604051808303816000875af19250505080156110f4575060408051601f3d908101601f191682019092526110f191810190611b96565b60015b61115d573d808015611122576040519150601f19603f3d011682016040523d82523d6000602084013e611127565b606091505b50805160000361115557604051633250574960e11b81526001600160a01b03851660048201526024016105b4565b805181602001fd5b6001600160e01b03198116630a85bd0160e11b1461119957604051633250574960e11b81526001600160a01b03851660048201526024016105b4565b5050505050565b6111a8611617565b61058a8282611660565b6111ba611617565b6111c2611691565b6111ca6116a1565b6111d26116a9565b6111dd600082610d42565b506111f6600080516020611cdc83398151915282610d42565b506112217fb19546dff01e856fb3f010c267a7b1c60363cf8a4664e21cc89c26224620214e82610d42565b5061124c7f9f2df0fed2c77648de5860a4cc508cd0818c85b8b8a1ab4ceeef8d981c8956a682610d42565b506112777fa49807205ce4d355092ef5a8a18f56e8913cf4a201fbe287825b095693c2177582610d42565b506112a27f35af5b5a3fb4c88a8cb5e26e8a68a53cc8f6cafcc4000a1db1ae5753e25a168e82610d42565b5061058a7f10dac8c06a04bec0b551627dad28bc00d6516b0caacd1c7b345fcdb5211334e482610d42565b606060006112da836116b9565b600101905060008167ffffffffffffffff8111156112fa576112fa6119d4565b6040519080825280601f01601f191660200182016040528015611324576020820181803683370190505b5090508181016020015b600019016f181899199a1a9b1b9c1cb0b131b232b360811b600a86061a8153600a850494508461132e57509392505050565b6001600160a01b03821661138a57604051633250574960e11b8152600060048201526024016105b4565b600061139883836000610c2e565b90506001600160a01b0381161561068f576040516339e3563760e11b8152600060048201526024016105b4565b60006001600160e01b03198216637965db0b60e01b14806104c057506301ffc9a760e01b6001600160e01b03198316146104c0565b60009081527f80bb2b638cc20bc4d0a60d66940f3ab4a00c1d7b313497ca82fb0b4ab007930260205260409020546001600160a01b031690565b600080516020611cbc833981519152818061145757506001600160a01b03831615155b1561151957600061146785610baf565b90506001600160a01b038416158015906114935750836001600160a01b0316816001600160a01b031614155b80156114a657506114a48185610a90565b155b156114cf5760405163a9fbf51f60e01b81526001600160a01b03851660048201526024016105b4565b82156115175784866001600160a01b0316826001600160a01b03167f8c5be1e5ebec7d5bd14f71427d1e84f3dd0314c0f7b2291e5b200ac8c7c3b92560405160405180910390a45b505b600093845260040160205250506040902080546001600160a01b0319166001600160a01b0392909216919091179055565b611555838383611791565b61068f576001600160a01b03831661158357604051637e27328960e01b8152600481018290526024016105b4565b60405163177e802f60e01b81526001600160a01b0383166004820152602481018290526044016105b4565b6115b88282610759565b61058a5760405163e2517d3f60e01b81526001600160a01b0382166004820152602481018390526044016105b4565b600080516020611d1c8339815191525460ff1661102657604051638dfc202b60e01b815260040160405180910390fd5b7ff0c57e16840df040f15088dc2f81fe391c3923bec73e23a9662efc9c229c6a0054600160401b900460ff1661102657604051631afcd79f60e31b815260040160405180910390fd5b611668611617565b600080516020611cbc833981519152806116828482611bfb565b50600181016106188382611bfb565b611699611617565b6110266117f7565b611026611617565b6116b1611617565b611026611818565b60008072184f03e93ff9f4daa797ed6e38ed64bf6a1f0160401b83106116f85772184f03e93ff9f4daa797ed6e38ed64bf6a1f0160401b830492506040015b6d04ee2d6d415b85acef81000000008310611724576d04ee2d6d415b85acef8100000000830492506020015b662386f26fc10000831061174257662386f26fc10000830492506010015b6305f5e100831061175a576305f5e100830492506008015b612710831061176e57612710830492506004015b60648310611780576064830492506002015b600a83106104c05760010192915050565b60006001600160a01b038316158015906117ef5750826001600160a01b0316846001600160a01b031614806117cb57506117cb8484610a90565b806117ef5750826001600160a01b03166117e483610be7565b6001600160a01b0316145b949350505050565b6117ff611617565b600080516020611d1c833981519152805460ff19169055565b611063611617565b6001600160e01b0319811681146106b457600080fd5b60006020828403121561184857600080fd5b8135610a6d81611820565b60005b8381101561186e578181015183820152602001611856565b50506000910152565b6000815180845261188f816020860160208601611853565b601f01601f19169290920160200192915050565b602081526000610a6d6020830184611877565b6000602082840312156118c857600080fd5b5035919050565b80356001600160a01b03811681146118e657600080fd5b919050565b600080604083850312156118fe57600080fd5b611907836118cf565b946020939093013593505050565b60008060006060848603121561192a57600080fd5b611933846118cf565b9250611941602085016118cf565b9150604084013590509250925092565b6000806040838503121561196457600080fd5b82359150611974602084016118cf565b90509250929050565b60006020828403121561198f57600080fd5b610a6d826118cf565b600080604083850312156119ab57600080fd5b6119b4836118cf565b9150602083013580151581146119c957600080fd5b809150509250929050565b634e487b7160e01b600052604160045260246000fd5b60008060008060808587031215611a0057600080fd5b611a09856118cf565b9350611a17602086016118cf565b925060408501359150606085013567ffffffffffffffff80821115611a3b57600080fd5b818701915087601f830112611a4f57600080fd5b813581811115611a6157611a616119d4565b604051601f8201601f19908116603f01168101908382118183101715611a8957611a896119d4565b816040528281528a6020848701011115611aa257600080fd5b82602086016020830137600060208483010152809550505050505092959194509250565b60008060408385031215611ad957600080fd5b611ae2836118cf565b9150611974602084016118cf565b600181811c90821680611b0457607f821691505b602082108103611b2457634e487b7160e01b600052602260045260246000fd5b50919050565b60008351611b3c818460208801611853565b835190830190611b50818360208801611853565b01949350505050565b6001600160a01b0385811682528416602082015260408101839052608060608201819052600090611b8c90830184611877565b9695505050505050565b600060208284031215611ba857600080fd5b8151610a6d81611820565b601f82111561068f576000816000526020600020601f850160051c81016020861015611bdc5750805b601f850160051c820191505b818110156109f757828155600101611be8565b815167ffffffffffffffff811115611c1557611c156119d4565b611c2981611c238454611af0565b84611bb3565b602080601f831160018114611c5e5760008415611c465750858301515b600019600386901b1c1916600185901b1785556109f7565b600085815260208120601f198616915b82811015611c8d57888601518255948401946001909101908401611c6e565b5085821015611cab5787850151600019600388901b60f8161c191681555b5050505050600190811b0190555056fe80bb2b638cc20bc4d0a60d66940f3ab4a00c1d7b313497ca82fb0b4ab007930065d7a28e3265b37a6474929f336521b332c1681b933f6cb9f3376673440d862a02dd7bc7dec4dceedda775e58dd541e08a116c6c53815c0bd028192f7b626800cd5ed15c6e187e77e9aee88184c21f4f2182ab5827cb3b7e07fbedcd63f033009b779b17422d0df92223018b32b4d1fa46e071723d6817e2486d003becc55f00a2646970667358221220e2e6db3fc597606af0aa740397b9a0d01d8f391ad97a2af5dafaeb6f411758c764736f6c63430008170033","linkReferences":{}},"methodIdentifiers":{"ADMIN_ROLE()":"75b238fc","DEFAULT_ADMIN_ROLE()":"a217fddf","MINTER_ROLE()":"d5391393","OWNER_ROLE()":"e58378bb","PAUSER_ROLE()":"e63ab1e9","UTILITY_ROLE()":"8f296759","WITHDRAWER_ROLE()":"85f438c1","approve(address,uint256)":"095ea7b3","balanceOf(address)":"70a08231","deposit(uint256)":"b6b55f25","getApproved(uint256)":"081812fc","getRoleAdmin(bytes32)":"248a9ca3","grantRole(bytes32,address)":"2f2ff15d","hasRole(bytes32,address)":"91d14854","initialize(address)":"c4d66de8","isApprovedForAll(address,address)":"e985e9c5","name()":"06fdde03","ownerOf(uint256)":"6352211e","pause()":"8456cb59","paused()":"5c975abb","renounceRole(bytes32,address)":"36568abe","revokeRole(bytes32,address)":"d547741f","safeTransferFrom(address,address,uint256)":"42842e0e","safeTransferFrom(address,address,uint256,bytes)":"b88d4fde","setApprovalForAll(address,bool)":"a22cb465","supportsInterface(bytes4)":"01ffc9a7","symbol()":"95d89b41","tokenURI(uint256)":"c87b56dd","transferFrom(address,address,uint256)":"23b872dd","unpause()":"3f4ba83a","withdraw(address,uint256)":"f3fef3a3"},"id":2}